{
  "contractName": "proofofabuse",
  "abi": [
    {
      "constant": true,
      "inputs": [
        {
          "name": "",
          "type": "address"
        }
      ],
      "name": "victims",
      "outputs": [
        {
          "name": "victimName",
          "type": "address"
        },
        {
          "name": "isVictimMinor",
          "type": "bool"
        },
        {
          "name": "offender",
          "type": "address"
        },
        {
          "name": "abuseOccuredOn",
          "type": "uint256"
        },
        {
          "name": "abuseOccuredPlace",
          "type": "string"
        },
        {
          "name": "abuseReportedOn",
          "type": "uint256"
        }
      ],
      "payable": false,
      "stateMutability": "view",
      "type": "function",
      "signature": "0x93f1bd6d"
    },
    {
      "inputs": [],
      "payable": false,
      "stateMutability": "nonpayable",
      "type": "constructor",
      "signature": "constructor"
    },
    {
      "anonymous": false,
      "inputs": [
        {
          "indexed": false,
          "name": "victimNameEvnt",
          "type": "address"
        },
        {
          "indexed": false,
          "name": "isVictimMinorEvnt",
          "type": "bool"
        },
        {
          "indexed": false,
          "name": "offenderEvnt",
          "type": "address"
        },
        {
          "indexed": false,
          "name": "abuseOccuredOnEvnt",
          "type": "uint256"
        },
        {
          "indexed": false,
          "name": "abuseOccuredPlaceEvnt",
          "type": "string"
        },
        {
          "indexed": false,
          "name": "abuseReportedOEvntn",
          "type": "uint256"
        }
      ],
      "name": "createAbuseClaimEvent",
      "type": "event",
      "signature": "0x7bca9d16da93a57f7c988eb875754f9cd12311e094a7d02da889f4ccd2de7763"
    },
    {
      "constant": false,
      "inputs": [
        {
          "name": "_victimName",
          "type": "address"
        },
        {
          "name": "_isVictimMinor",
          "type": "bool"
        },
        {
          "name": "_offender",
          "type": "address"
        },
        {
          "name": "_abuseOccuredOn",
          "type": "uint256"
        },
        {
          "name": "_abuseOccuredPlace",
          "type": "string"
        },
        {
          "name": "_abuseReportedOn",
          "type": "uint256"
        }
      ],
      "name": "createAbuseClaim",
      "outputs": [],
      "payable": false,
      "stateMutability": "nonpayable",
      "type": "function",
      "signature": "0x4af0c81e"
    },
    {
      "constant": true,
      "inputs": [
        {
          "name": "victimname",
          "type": "address"
        }
      ],
      "name": "getClaim",
      "outputs": [
        {
          "name": "_victiNamemRet",
          "type": "address"
        },
        {
          "name": "_isVictimMinorRet",
          "type": "bool"
        },
        {
          "name": "_offenderRet",
          "type": "address"
        },
        {
          "name": "_abuseOccuredOnRet",
          "type": "uint256"
        },
        {
          "name": "_abuseOccuredPlaceRet",
          "type": "string"
        },
        {
          "name": "_abuseReportedOnRet",
          "type": "uint256"
        }
      ],
      "payable": false,
      "stateMutability": "view",
      "type": "function",
      "signature": "0x4cd3723a"
    }
  ],
  "bytecode": "0x608060405234801561001057600080fd5b50336000806101000a81548173ffffffffffffffffffffffffffffffffffffffff021916908373ffffffffffffffffffffffffffffffffffffffff160217905550610a39806100606000396000f3fe608060405260043610610057576000357c0100000000000000000000000000000000000000000000000000000000900463ffffffff1680634af0c81e1461005c5780634cd3723a1461018457806393f1bd6d146102cd575b600080fd5b34801561006857600080fd5b50610182600480360360c081101561007f57600080fd5b81019080803573ffffffffffffffffffffffffffffffffffffffff169060200190929190803515159060200190929190803573ffffffffffffffffffffffffffffffffffffffff16906020019092919080359060200190929190803590602001906401000000008111156100f257600080fd5b82018360208201111561010457600080fd5b8035906020019184600183028401116401000000008311171561012657600080fd5b91908080601f016020809104026020016040519081016040528093929190818152602001838380828437600081840152601f19601f82011690508083019250505050505050919291929080359060200190929190505050610416565b005b34801561019057600080fd5b506101d3600480360360208110156101a757600080fd5b81019080803573ffffffffffffffffffffffffffffffffffffffff1690602001909291905050506106d0565b604051808773ffffffffffffffffffffffffffffffffffffffff1673ffffffffffffffffffffffffffffffffffffffff168152602001861515151581526020018573ffffffffffffffffffffffffffffffffffffffff1673ffffffffffffffffffffffffffffffffffffffff16815260200184815260200180602001838152602001828103825284818151815260200191508051906020019080838360005b8381101561028d578082015181840152602081019050610272565b50505050905090810190601f1680156102ba5780820380516001836020036101000a031916815260200191505b5097505050505050505060405180910390f35b3480156102d957600080fd5b5061031c600480360360208110156102f057600080fd5b81019080803573ffffffffffffffffffffffffffffffffffffffff169060200190929190505050610847565b604051808773ffffffffffffffffffffffffffffffffffffffff1673ffffffffffffffffffffffffffffffffffffffff168152602001861515151581526020018573ffffffffffffffffffffffffffffffffffffffff1673ffffffffffffffffffffffffffffffffffffffff16815260200184815260200180602001838152602001828103825284818151815260200191508051906020019080838360005b838110156103d65780820151818401526020810190506103bb565b50505050905090810190601f1680156104035780820380516001836020036101000a031916815260200191505b5097505050505050505060405180910390f35b6000600160003373ffffffffffffffffffffffffffffffffffffffff1673ffffffffffffffffffffffffffffffffffffffff1681526020019081526020016000209050868160000160006101000a81548173ffffffffffffffffffffffffffffffffffffffff021916908373ffffffffffffffffffffffffffffffffffffffff160217905550858160000160146101000a81548160ff021916908315150217905550848160010160006101000a81548173ffffffffffffffffffffffffffffffffffffffff021916908373ffffffffffffffffffffffffffffffffffffffff16021790555083816002018190555081816004018190555082816003019080519060200190610525929190610968565b507f7bca9d16da93a57f7c988eb875754f9cd12311e094a7d02da889f4ccd2de77638160000160009054906101000a900473ffffffffffffffffffffffffffffffffffffffff168260000160149054906101000a900460ff168360010160009054906101000a900473ffffffffffffffffffffffffffffffffffffffff168460020154856003018660040154604051808773ffffffffffffffffffffffffffffffffffffffff1673ffffffffffffffffffffffffffffffffffffffff168152602001861515151581526020018573ffffffffffffffffffffffffffffffffffffffff1673ffffffffffffffffffffffffffffffffffffffff168152602001848152602001806020018381526020018281038252848181546001816001161561010002031660029004815260200191508054600181600116156101000203166002900480156106b45780601f10610689576101008083540402835291602001916106b4565b820191906000526020600020905b81548152906001019060200180831161069757829003601f168201915b505097505050505050505060405180910390a150505050505050565b6000806000806060600080600160008973ffffffffffffffffffffffffffffffffffffffff1673ffffffffffffffffffffffffffffffffffffffff16815260200190815260200160002090508060000160009054906101000a900473ffffffffffffffffffffffffffffffffffffffff1696508060000160149054906101000a900460ff1695508060010160009054906101000a900473ffffffffffffffffffffffffffffffffffffffff16945080600201549350806003018054600181600116156101000203166002900480601f01602080910402602001604051908101604052809291908181526020018280546001816001161561010002031660029004801561081d5780601f106107f25761010080835404028352916020019161081d565b820191906000526020600020905b81548152906001019060200180831161080057829003601f168201915b50505050509250806004015491508686868686869650965096509650965096505091939550919395565b60016020528060005260406000206000915090508060000160009054906101000a900473ffffffffffffffffffffffffffffffffffffffff16908060000160149054906101000a900460ff16908060010160009054906101000a900473ffffffffffffffffffffffffffffffffffffffff1690806002015490806003018054600181600116156101000203166002900480601f0160208091040260200160405190810160405280929190818152602001828054600181600116156101000203166002900480156109585780601f1061092d57610100808354040283529160200191610958565b820191906000526020600020905b81548152906001019060200180831161093b57829003601f168201915b5050505050908060040154905086565b828054600181600116156101000203166002900490600052602060002090601f016020900481019282601f106109a957805160ff19168380011785556109d7565b828001600101855582156109d7579182015b828111156109d65782518255916020019190600101906109bb565b5b5090506109e491906109e8565b5090565b610a0a91905b80821115610a065760008160009055506001016109ee565b5090565b9056fea165627a7a723058208659b64e5d212d7b6aa26a4c0403db54d491d69264e9422050d39837a23d19d40029",
  "source": "pragma solidity ^0.5.0;\n\ncontract proofofabuse {\n  address payable owner;\n  struct victim{\n    address payable victimName;\n    bool isVictimMinor;\n    address payable offender;\n    uint abuseOccuredOn;\n    string abuseOccuredPlace;\n    uint abuseReportedOn;\n\n  }\n  mapping(address => victim) public victims;\n  event createAbuseClaimEvent(address payable victimNameEvnt, bool isVictimMinorEvnt, address payable offenderEvnt, uint abuseOccuredOnEvnt,string abuseOccuredPlaceEvnt,uint abuseReportedOEvntn);\n  constructor() public {\n    owner = msg.sender;\n  }\n\n  function createAbuseClaim\n  ( address payable _victimName,\n    bool _isVictimMinor,\n    address payable _offender,\n    uint _abuseOccuredOn,\n    string memory _abuseOccuredPlace,\n    uint _abuseReportedOn)\n    public {\n      victim storage _victim = victims[msg.sender];\n\n      _victim.victimName = _victimName;\n      _victim.isVictimMinor = _isVictimMinor;\n      _victim.offender = _offender;\n      _victim.abuseOccuredOn = _abuseOccuredOn;\n      _victim.abuseReportedOn = _abuseReportedOn;\n      _victim.abuseOccuredPlace = _abuseOccuredPlace;\n\n      emit createAbuseClaimEvent(_victim.victimName,_victim.isVictimMinor,_victim.offender,_victim.abuseOccuredOn,_victim.abuseOccuredPlace,_victim.abuseReportedOn);\n\n    }\n\n    function getClaim(address payable victimname) public view returns(address _victiNamemRet,bool _isVictimMinorRet,address _offenderRet,uint _abuseOccuredOnRet,string memory _abuseOccuredPlaceRet,uint _abuseReportedOnRet){\n      victim storage _victimRet = victims[victimname];\n\n      _victiNamemRet = _victimRet.victimName;\n      _isVictimMinorRet = _victimRet.isVictimMinor;\n      _offenderRet = _victimRet.offender;\n      _abuseOccuredOnRet = _victimRet.abuseOccuredOn;\n      _abuseOccuredPlaceRet = _victimRet.abuseOccuredPlace;\n      _abuseReportedOnRet = _victimRet.abuseReportedOn;\n\n      return(_victiNamemRet, _isVictimMinorRet, _offenderRet, _abuseOccuredOnRet, _abuseOccuredPlaceRet, _abuseReportedOnRet);\n    }\n\n\n}\n",
  "sourcePath": "C:/hackathon/proofofabuse/proofofabusesc/contracts/proofofabuse.sol",
  "compiler": {
    "name": "solc",
    "version": "0.5.0+commit.1d4f565a.Emscripten.clang"
  },
  "schemaVersion": "3.0.1",
  "updatedAt": "2019-02-24T15:48:19.889Z",
  "devdoc": {
    "methods": {}
  },
  "userdoc": {
    "methods": {}
  }
}